{
  "contractName": "Links",
  "abi": [
    {
      "constant": true,
      "inputs": [],
      "name": "contractNonce",
      "outputs": [
        {
          "name": "",
          "type": "uint256"
        }
      ],
      "payable": false,
      "stateMutability": "view",
      "type": "function"
    },
    {
      "constant": true,
      "inputs": [
        {
          "name": "",
          "type": "bytes32"
        }
      ],
      "name": "funds",
      "outputs": [
        {
          "name": "sender",
          "type": "address"
        },
        {
          "name": "signer",
          "type": "address"
        },
        {
          "name": "value",
          "type": "uint256"
        },
        {
          "name": "nonce",
          "type": "uint256"
        },
        {
          "name": "claimed",
          "type": "bool"
        }
      ],
      "payable": false,
      "stateMutability": "view",
      "type": "function"
    },
    {
      "anonymous": false,
      "inputs": [
        {
          "indexed": true,
          "name": "id",
          "type": "bytes32"
        },
        {
          "indexed": true,
          "name": "sender",
          "type": "address"
        },
        {
          "indexed": false,
          "name": "value",
          "type": "uint256"
        },
        {
          "indexed": true,
          "name": "nonce",
          "type": "uint256"
        },
        {
          "indexed": false,
          "name": "sent",
          "type": "bool"
        }
      ],
      "name": "Sent",
      "type": "event"
    },
    {
      "anonymous": false,
      "inputs": [
        {
          "indexed": true,
          "name": "id",
          "type": "bytes32"
        },
        {
          "indexed": false,
          "name": "sender",
          "type": "address"
        },
        {
          "indexed": false,
          "name": "value",
          "type": "uint256"
        },
        {
          "indexed": true,
          "name": "receiver",
          "type": "address"
        },
        {
          "indexed": true,
          "name": "nonce",
          "type": "uint256"
        },
        {
          "indexed": false,
          "name": "claimed",
          "type": "bool"
        }
      ],
      "name": "Claimed",
      "type": "event"
    },
    {
      "constant": false,
      "inputs": [
        {
          "name": "_id",
          "type": "bytes32"
        },
        {
          "name": "_signature",
          "type": "bytes"
        }
      ],
      "name": "send",
      "outputs": [
        {
          "name": "",
          "type": "bool"
        }
      ],
      "payable": true,
      "stateMutability": "payable",
      "type": "function"
    },
    {
      "constant": false,
      "inputs": [
        {
          "name": "_id",
          "type": "bytes32"
        },
        {
          "name": "_signature",
          "type": "bytes"
        },
        {
          "name": "_claimHash",
          "type": "bytes32"
        },
        {
          "name": "_destination",
          "type": "address"
        }
      ],
      "name": "claim",
      "outputs": [
        {
          "name": "",
          "type": "bool"
        }
      ],
      "payable": false,
      "stateMutability": "nonpayable",
      "type": "function"
    },
    {
      "constant": true,
      "inputs": [
        {
          "name": "_id",
          "type": "bytes32"
        },
        {
          "name": "_signature",
          "type": "bytes"
        },
        {
          "name": "_claimHash",
          "type": "bytes32"
        },
        {
          "name": "_destination",
          "type": "address"
        }
      ],
      "name": "isClaimValid",
      "outputs": [
        {
          "name": "",
          "type": "bool"
        }
      ],
      "payable": false,
      "stateMutability": "view",
      "type": "function"
    },
    {
      "constant": true,
      "inputs": [
        {
          "name": "_id",
          "type": "bytes32"
        }
      ],
      "name": "isFundValid",
      "outputs": [
        {
          "name": "",
          "type": "bool"
        }
      ],
      "payable": false,
      "stateMutability": "view",
      "type": "function"
    }
  ],
  "bytecode": "0x6080604052600160005534801561001557600080fd5b50611379806100256000396000f300608060405260043610610078576000357c0100000000000000000000000000000000000000000000000000000000900463ffffffff1680630b7d37b01461007d57806349d71f051461013a5780634fdf7085146101655780636a29a620146101e75780638af047b5146102a4578063d37e6d00146102ed575b600080fd5b34801561008957600080fd5b506101206004803603810190808035600019169060200190929190803590602001908201803590602001908080601f01602080910402602001604051908101604052809392919081815260200183838082843782019150505050505091929192908035600019169060200190929190803573ffffffffffffffffffffffffffffffffffffffff1690602001909291905050506103aa565b604051808215151515815260200191505060405180910390f35b34801561014657600080fd5b5061014f6105f7565b6040518082815260200191505060405180910390f35b6101cd6004803603810190808035600019169060200190929190803590602001908201803590602001908080601f01602080910402602001604051908101604052809392919081815260200183838082843782019150505050505091929192905050506105fd565b604051808215151515815260200191505060405180910390f35b3480156101f357600080fd5b506102166004803603810190808035600019169060200190929190505050610b0a565b604051808673ffffffffffffffffffffffffffffffffffffffff1673ffffffffffffffffffffffffffffffffffffffff1681526020018573ffffffffffffffffffffffffffffffffffffffff1673ffffffffffffffffffffffffffffffffffffffff168152602001848152602001838152602001821515151581526020019550505050505060405180910390f35b3480156102b057600080fd5b506102d36004803603810190808035600019169060200190929190505050610b8d565b604051808215151515815260200191505060405180910390f35b3480156102f957600080fd5b506103906004803603810190808035600019169060200190929190803590602001908201803590602001908080601f01602080910402602001604051908101604052809392919081815260200183838082843782019150505050505091929192908035600019169060200190929190803573ffffffffffffffffffffffffffffffffffffffff169060200190929190505050610d17565b604051808215151515815260200191505060405180910390f35b6000806000806103b988610b8d565b80156103c6575060418751145b156105e75760009250600160008960001916600019168152602001908152602001600020600301549150878583306040516020018085600019166000191681526020018473ffffffffffffffffffffffffffffffffffffffff1673ffffffffffffffffffffffffffffffffffffffff166c010000000000000000000000000281526014018381526020018273ffffffffffffffffffffffffffffffffffffffff1673ffffffffffffffffffffffffffffffffffffffff166c010000000000000000000000000281526014019450505050506040516020818303038152906040526040518082805190602001908083835b6020831015156104db57805182526020820191506020810190506020830392506104b6565b6001836020036101000a0380198251168184511680821785525050505050509050019150506040518091039020905080600019168660001916141561052b576105248188610dac565b9250610534565b600093506105ec565b600073ffffffffffffffffffffffffffffffffffffffff168373ffffffffffffffffffffffffffffffffffffffff161415156105de578273ffffffffffffffffffffffffffffffffffffffff16600160008a6000191660001916815260200190815260200160002060010160009054906101000a900473ffffffffffffffffffffffffffffffffffffffff1673ffffffffffffffffffffffffffffffffffffffff161493506105ec565b600093506105ec565b600093505b505050949350505050565b60005481565b60008060006605543df729c00034101515156106cd576040517f08c379a00000000000000000000000000000000000000000000000000000000081526004018080602001828103825260418152602001807f4c696e6b733a3a73656e642c206e6565647320746f206265206174206c65617381526020017f7420302e30303135207844616920746f207061792072656c617920726577617281526020017f640000000000000000000000000000000000000000000000000000000000000081525060600191505060405180910390fd5b6041845114151561076c576040517f08c379a00000000000000000000000000000000000000000000000000000000081526004018080602001828103825260258152602001807f4c696e6b733a3a73656e642c20696e76616c6964207369676e6174757265206c81526020017f656e67687400000000000000000000000000000000000000000000000000000081525060400191505060405180910390fd5b61077585610b8d565b1515156107ea576040517f08c379a000000000000000000000000000000000000000000000000000000000815260040180806020018281038252601e8152602001807f4c696e6b733a3a73656e642c20696420616c726561647920657869737473000081525060200191505060405180910390fd5b6107f48585610dac565b9150600073ffffffffffffffffffffffffffffffffffffffff168273ffffffffffffffffffffffffffffffffffffffff161415151561089b576040517f08c379a000000000000000000000000000000000000000000000000000000000815260040180806020018281038252601b8152602001807f4c696e6b733a3a73656e642c20696e76616c6964207369676e6572000000000081525060200191505060405180910390fd5b60005490506108ad6000546001610f55565b600081905550600054811015156108c057fe5b60a0604051908101604052803373ffffffffffffffffffffffffffffffffffffffff1681526020018373ffffffffffffffffffffffffffffffffffffffff1681526020013481526020018281526020016000151581525060016000876000191660001916815260200190815260200160002060008201518160000160006101000a81548173ffffffffffffffffffffffffffffffffffffffff021916908373ffffffffffffffffffffffffffffffffffffffff16021790555060208201518160010160006101000a81548173ffffffffffffffffffffffffffffffffffffffff021916908373ffffffffffffffffffffffffffffffffffffffff160217905550604082015181600201556060820151816003015560808201518160040160006101000a81548160ff021916908315150217905550905050610a0085610b8d565b8015610a2957503460016000876000191660001916815260200190815260200160002060020154145b1515610a9d576040517f08c379a00000000000000000000000000000000000000000000000000000000081526004018080602001828103825260198152602001807f4c696e6b733a3a73656e642c20696e76616c69642066756e640000000000000081525060200191505060405180910390fd5b803373ffffffffffffffffffffffffffffffffffffffff1686600019167fa3b60f1507010a7e27e9a8ab020d43601d456628bee71f1cc9c2f06547688d8134600160405180838152602001821515151581526020019250505060405180910390a460019250505092915050565b60016020528060005260406000206000915090508060000160009054906101000a900473ffffffffffffffffffffffffffffffffffffffff16908060010160009054906101000a900473ffffffffffffffffffffffffffffffffffffffff16908060020154908060030154908060040160009054906101000a900460ff16905085565b600080600080600060016000876000191660001916815260200190815260200160002060000160009054906101000a900473ffffffffffffffffffffffffffffffffffffffff16935060016000876000191660001916815260200190815260200160002060010160009054906101000a900473ffffffffffffffffffffffffffffffffffffffff16925060016000876000191660001916815260200190815260200160002060020154915060016000876000191660001916815260200190815260200160002060030154905063ffffffff8416935063ffffffff8316925063ffffffff8216915063ffffffff81169050600073ffffffffffffffffffffffffffffffffffffffff168473ffffffffffffffffffffffffffffffffffffffff1614158015610ce75750600073ffffffffffffffffffffffffffffffffffffffff168373ffffffffffffffffffffffffffffffffffffffff1614155b8015610cf35750600082115b8015610cff5750600081115b8015610d0c575060005481105b945050505050919050565b6000610d2285610b8d565b1515610d96576040517f08c379a000000000000000000000000000000000000000000000000000000000815260040180806020018281038252601a8152602001807f4c696e6b733a3a636c61696d2c20696e76616c69642066756e6400000000000081525060200191505060405180910390fd5b610da285858585610f71565b9050949350505050565b60008060008060418551141515610dc65760009350610f4c565b6020850151925060408501519150606085015160001a9050601b8160ff161015610df157601b810190505b601b8160ff1614158015610e095750601c8160ff1614155b15610e175760009350610f4c565b60018660405160200180807f19457468657265756d205369676e6564204d6573736167653a0a333200000000815250601c0182600019166000191681526020019150506040516020818303038152906040526040518082805190602001908083835b602083101515610e9e5780518252602082019150602081019050602083039250610e79565b6001836020036101000a0380198251168184511680821785525050505050509050019150506040518091039020828585604051600081526020016040526040518085600019166000191681526020018460ff1660ff1681526020018360001916600019168152602001826000191660001916815260200194505050505060206040516020810390808403906000865af1158015610f3f573d6000803e3d6000fd5b5050506020604051035193505b50505092915050565b60008183019050828110151515610f6857fe5b80905092915050565b600080600080600080610f868a8a8a8a6103aa565b1515611020576040517f08c379a00000000000000000000000000000000000000000000000000000000081526004018080602001828103825260278152602001807f4c696e6b733a3a65786563757465436c61696d2c20636c61696d206973206e6f81526020017f742076616c69640000000000000000000000000000000000000000000000000081525060400191505060405180910390fd5b60009450600160008b60001916600019168152602001908152602001600020600201549350600160008b6000191660001916815260200190815260200160002060040160009054906101000a900460ff169250600160008b60001916600019168152602001908152602001600020600201549150600160008b60001916600019168152602001908152602001600020600301549050600054811015156110c257fe5b6000151583151514156112155760018060008c6000191660001916815260200190815260200160002060040160006101000a81548160ff0219169083151502179055508673ffffffffffffffffffffffffffffffffffffffff166108fc839081150290604051600060405180830381858888f19350505050945084600160008c6000191660001916815260200190815260200160002060040160006101000a81548160ff02191690831515021790555060011515851515141561121057600160008b60001916600019168152602001908152602001600020600080820160006101000a81549073ffffffffffffffffffffffffffffffffffffffff02191690556001820160006101000a81549073ffffffffffffffffffffffffffffffffffffffff0219169055600282016000905560038201600090556004820160006101000a81549060ff021916905550505b6112a9565b829450600160008b60001916600019168152602001908152602001600020600080820160006101000a81549073ffffffffffffffffffffffffffffffffffffffff02191690556001820160006101000a81549073ffffffffffffffffffffffffffffffffffffffff0219169055600282016000905560038201600090556004820160006101000a81549060ff021916905550505b808773ffffffffffffffffffffffffffffffffffffffff168b600019167f3f08a979439327bb6246f38c73f40f9159a93858bbcd4d50258d6902c2b1d78233868a604051808473ffffffffffffffffffffffffffffffffffffffff1673ffffffffffffffffffffffffffffffffffffffff16815260200183815260200182151515158152602001935050505060405180910390a484955050505050509493505050505600a165627a7a723058201b1c4836644a4dcd14994bfd6999434fdb4c7983c182712516fad9411b6e84940029",
  "source": "pragma solidity 0.4.25;\n\ncontract Links {\n\n    struct Fund {\n        address sender;\n        address signer;\n        uint256 value;\n        uint256 nonce;\n        bool claimed;\n    }\n    uint256 public  contractNonce = 1;\n    mapping (bytes32 => Fund) public funds;\n\n    event Sent(\n        bytes32 indexed id,\n        address indexed sender,\n        uint256 value,\n        uint256 indexed nonce,\n        bool sent\n    );\n    event Claimed(\n        bytes32 indexed id,\n        address sender,\n        uint256 value,\n        address indexed receiver,\n        uint256 indexed nonce,\n        bool claimed\n    );\n\n    /// @dev Create fund.\n    /// @param _id Fund lookup key value.\n    /// @param _signature Sender signature.\n    function send(\n        bytes32 _id,\n        bytes memory _signature\n    )\n        public\n        payable\n        returns (bool)\n    {\n        require(msg.value >= 1500000000000000,\"Links::send, needs to be at least 0.0015 xDai to pay relay reward\");\n        require(_signature.length == 65,\"Links::send, invalid signature lenght\");\n        //make sure there is not already a fund here\n        require(!isFundValid(_id),\"Links::send, id already exists\");\n        address signer = recoverSigner(_id,_signature);\n        //recoverSigner returns: address(0) if invalid signature or incorrect version.\n        require(signer != address(0),\"Links::send, invalid signer\");\n        uint256 nonce = contractNonce;\n        contractNonce = safeAdd(contractNonce,uint256(1));\n        assert(nonce < contractNonce);\n        //create fund\n        funds[_id] = Fund({\n            sender: msg.sender,\n            signer: signer,\n            value: msg.value,\n            nonce: nonce,\n            claimed: false\n        });\n        require(isFundValid(_id) && funds[_id].value == msg.value,\"Links::send, invalid fund\");\n        //send out events for frontend parsing\n        emit Sent(_id,msg.sender,msg.value,nonce,true);\n        return true;\n    }\n\n    /// @dev Claim fund value.\n    /// @param _id Claim lookup key value.\n    /// @param _signature Sender signature.\n    /// @param _destination Destination address.\n    function claim(\n        bytes32 _id,\n        bytes memory _signature,\n        bytes32 _claimHash,\n        address _destination\n    )\n        public\n        returns (bool)\n    {\n        require(isFundValid(_id),\"Links::claim, invalid fund\");\n        return executeClaim(_id,_signature,_claimHash,_destination);\n    }\n\n    /// @dev Off chain relayer can validate the claim before submitting.\n    /// @param _id Claim lookup key value.\n    /// @param _signature Sender signature.\n    /// @param _destination Destination address.\n    function isClaimValid(\n        bytes32 _id,\n        bytes memory _signature,\n        bytes32 _claimHash,\n        address _destination\n    )\n        public\n        view\n        returns (bool)\n    {\n        // address(0) destination is valid\n        if(isFundValid(_id) && _signature.length == 65){\n            address signer = address(0);\n            uint256 nonce = funds[_id].nonce;\n            // keccak256(_id,_destination,nonce,address(this)) is a unique key\n            // remains unique if the id gets reused after fund deletion\n            bytes32 claimHash1 = keccak256(abi.encodePacked(_id,_destination,nonce,address(this)));\n            if(_claimHash == claimHash1){\n                signer = recoverSigner(claimHash1,_signature);\n            } else{\n                return false;\n            }\n            if(signer != address(0)){\n                return(funds[_id].signer == signer);\n            } else{\n                return false;\n            }\n        } else{\n            return false;\n        }\n    }\n\n    /// @dev Validate fund status.\n    /// @param _id Lookup key id.\n    function isFundValid(\n        bytes32 _id\n    )\n        public\n        view\n        returns (bool)\n    {\n        address sender = funds[_id].sender;\n        address signer = funds[_id].signer;\n        uint256 value = funds[_id].value;\n        uint256 nonce = funds[_id].nonce;\n        /* solium-disable-next-line security/no-inline-assembly */\n        assembly {\n          // Cannot assume empty initial values without initializating them.\n          sender := and(sender, 0xffffffff)\n          signer := and(signer, 0xffffffff)\n          value := and(value, 0xffffffff)\n          nonce := and(nonce, 0xffffffff)\n        }\n        return (\n          sender != address(0) &&\n          signer != address(0) &&\n          value > uint256(0) &&\n          nonce > uint256(0) &&\n          nonce < contractNonce\n        );\n    }\n\n    /// @dev Claim fund value.\n    /// @param _id Claim lookup key value.\n    /// @param _destination Destination address.\n    function executeClaim(\n        bytes32 _id,\n        bytes memory _signature,\n        bytes32 _claimHash,\n        address _destination\n    )\n        private\n        returns (bool)\n    {\n        //makes sure signature is correct and fund is valid.\n        require(isClaimValid(_id,_signature,_claimHash,_destination),\"Links::executeClaim, claim is not valid\");\n        bool status = false;\n        uint256 residual = funds[_id].value;\n        bool claimed = funds[_id].claimed;\n        uint256 value = funds[_id].value;\n        uint256 nonce = funds[_id].nonce;\n\n        assert(nonce < contractNonce);\n        if(claimed == false){\n            // temporary fund invalidation\n            funds[_id].claimed = true;\n            /* solium-disable-next-line security/no-send */\n            status = _destination.send(value);\n            // update fund with correct status\n            funds[_id].claimed = status;\n            if(status == true){\n                // DESTROY object so it can't be claimed again and free storage space.\n                delete funds[_id];\n            }\n        } else{\n            status = claimed;\n            // DESTROY object so it can't be claimed again and free storage space.\n            delete funds[_id];\n        }\n        // send out events for frontend parsing\n        emit Claimed(_id,msg.sender,value,_destination,nonce,status);\n        return status;\n    }\n\n    ///@dev Returns whether the target address is a contract\n    ///@param account address of the account to check\n    ///@return whether the target address is a contract\n    function isContract(\n        address account\n    )\n        private\n        view\n        returns (bool)\n    {\n        uint256 size;\n        // TODO Check this again before the Serenity release, because all addresses will be contracts then.\n        // solium-disable-next-line security/no-inline-assembly\n        assembly { size := extcodesize(account) }\n        return size > 0;\n    }\n\n    /// @dev Recover signer from bytes32 data.\n    /// @param _hash bytes32 data.\n    /// @param _signature message signature (65 bytes).\n    function recoverSigner(\n        bytes32 _hash,\n        bytes memory _signature\n    )\n        private\n        pure\n        returns (address)\n    {\n        bytes32 r;\n        bytes32 s;\n        uint8 v;\n        // Check the signature length\n        if (_signature.length != 65) {\n            return address(0);\n        }\n        // Divide the signature in r, s and v variables\n        // ecrecover takes the signature parameters, and the only way to get them\n        // currently is to use assembly.\n        /* solium-disable-next-line security/no-inline-assembly */\n        assembly {\n          r := mload(add(_signature, 32))\n          s := mload(add(_signature, 64))\n          v := byte(0, mload(add(_signature, 96)))\n        }\n        // Version of signature should be 27 or 28, but 0 and 1 are also possible versions\n        if (v < 27) {\n            v += 27;\n        }\n        // If the version is correct return the signer address\n        if (v != 27 && v != 28) {\n            return address(0);\n        } else {\n            return ecrecover(\n              /* solium-disable-next-line */\n                keccak256(abi.encodePacked(\"\\x19Ethereum Signed Message:\\n32\", _hash))\n                , v, r, s);\n        }\n    }\n\n    /// @dev Adds two numbers, throws on overflow.\n    function safeAdd(\n        uint256 _a,\n        uint256 _b\n    )\n        private\n        pure\n        returns (uint256 c)\n    {\n        c = _a + _b;\n        assert(c >= _a);\n        return c;\n    }\n\n    /// @dev Substracts two numbers, throws on underflow.\n    function safeSub(\n        uint256 _a,\n        uint256 _b\n    )\n        private\n        pure\n        returns (uint256)\n    {\n        assert(_b <= _a);\n        return _a - _b;\n    }\n}\n",
  "sourcePath": "/Users/edu/Documents/Gitcoin/noti-burn/contracts/Links/Links.sol",
  "compiler": {
    "name": "solc",
    "version": "0.4.25+commit.59dbf8f1.Emscripten.clang"
  },
  "schemaVersion": "3.0.1",
  "updatedAt": "2019-02-06T18:25:41.139Z",
  "devdoc": {
    "methods": {
      "claim(bytes32,bytes,bytes32,address)": {
        "details": "Claim fund value.",
        "params": {
          "_destination": "Destination address.",
          "_id": "Claim lookup key value.",
          "_signature": "Sender signature."
        }
      },
      "isClaimValid(bytes32,bytes,bytes32,address)": {
        "details": "Off chain relayer can validate the claim before submitting.",
        "params": {
          "_destination": "Destination address.",
          "_id": "Claim lookup key value.",
          "_signature": "Sender signature."
        }
      },
      "isFundValid(bytes32)": {
        "details": "Validate fund status.",
        "params": {
          "_id": "Lookup key id."
        }
      },
      "send(bytes32,bytes)": {
        "details": "Create fund.",
        "params": {
          "_id": "Fund lookup key value.",
          "_signature": "Sender signature."
        }
      }
    }
  },
  "userdoc": {
    "methods": {}
  }
}