{
  "contractName": "WhitelistedRole",
  "abi": [
    {
      "constant": false,
      "inputs": [
        {
          "name": "account",
          "type": "address"
        }
      ],
      "name": "removeAdmin",
      "outputs": [],
      "payable": false,
      "stateMutability": "nonpayable",
      "type": "function"
    },
    {
      "constant": true,
      "inputs": [
        {
          "name": "account",
          "type": "address"
        }
      ],
      "name": "isAdmin",
      "outputs": [
        {
          "name": "",
          "type": "bool"
        }
      ],
      "payable": false,
      "stateMutability": "view",
      "type": "function"
    },
    {
      "constant": true,
      "inputs": [],
      "name": "superAdmin",
      "outputs": [
        {
          "name": "",
          "type": "address"
        }
      ],
      "payable": false,
      "stateMutability": "view",
      "type": "function"
    },
    {
      "constant": false,
      "inputs": [
        {
          "name": "account",
          "type": "address"
        }
      ],
      "name": "addAdmin",
      "outputs": [],
      "payable": false,
      "stateMutability": "nonpayable",
      "type": "function"
    },
    {
      "constant": false,
      "inputs": [],
      "name": "renounceAdmin",
      "outputs": [],
      "payable": false,
      "stateMutability": "nonpayable",
      "type": "function"
    },
    {
      "constant": true,
      "inputs": [
        {
          "name": "account",
          "type": "address"
        }
      ],
      "name": "isSuperAdmin",
      "outputs": [
        {
          "name": "",
          "type": "bool"
        }
      ],
      "payable": false,
      "stateMutability": "view",
      "type": "function"
    },
    {
      "anonymous": false,
      "inputs": [
        {
          "indexed": true,
          "name": "account",
          "type": "address"
        }
      ],
      "name": "WhitelistedAdded",
      "type": "event"
    },
    {
      "anonymous": false,
      "inputs": [
        {
          "indexed": true,
          "name": "account",
          "type": "address"
        }
      ],
      "name": "WhitelistedRemoved",
      "type": "event"
    },
    {
      "anonymous": false,
      "inputs": [
        {
          "indexed": true,
          "name": "account",
          "type": "address"
        }
      ],
      "name": "AdminAdded",
      "type": "event"
    },
    {
      "anonymous": false,
      "inputs": [
        {
          "indexed": true,
          "name": "account",
          "type": "address"
        }
      ],
      "name": "AdminRemoved",
      "type": "event"
    },
    {
      "constant": true,
      "inputs": [
        {
          "name": "account",
          "type": "address"
        }
      ],
      "name": "isWhitelisted",
      "outputs": [
        {
          "name": "",
          "type": "bool"
        }
      ],
      "payable": false,
      "stateMutability": "view",
      "type": "function"
    },
    {
      "constant": false,
      "inputs": [
        {
          "name": "account",
          "type": "address"
        }
      ],
      "name": "addWhitelisted",
      "outputs": [],
      "payable": false,
      "stateMutability": "nonpayable",
      "type": "function"
    },
    {
      "constant": false,
      "inputs": [
        {
          "name": "account",
          "type": "address"
        }
      ],
      "name": "removeWhitelisted",
      "outputs": [],
      "payable": false,
      "stateMutability": "nonpayable",
      "type": "function"
    },
    {
      "constant": false,
      "inputs": [],
      "name": "renounceWhitelisted",
      "outputs": [],
      "payable": false,
      "stateMutability": "nonpayable",
      "type": "function"
    }
  ],
  "bytecode": "0x608060405261001c33610062640100000000026401000000009004565b33600160006101000a81548173ffffffffffffffffffffffffffffffffffffffff021916908373ffffffffffffffffffffffffffffffffffffffff16021790555061021c565b6100838160006100c964010000000002610697179091906401000000009004565b8073ffffffffffffffffffffffffffffffffffffffff167f44d6d25963f097ad14f29f06854a01f575648a1ef82f30e562ccd3889717e33960405160405180910390a250565b600073ffffffffffffffffffffffffffffffffffffffff168173ffffffffffffffffffffffffffffffffffffffff161415151561010557600080fd5b61011e8282610188640100000000026401000000009004565b15151561012a57600080fd5b60018260000160008373ffffffffffffffffffffffffffffffffffffffff1673ffffffffffffffffffffffffffffffffffffffff16815260200190815260200160002060006101000a81548160ff0219169083151502179055505050565b60008073ffffffffffffffffffffffffffffffffffffffff168273ffffffffffffffffffffffffffffffffffffffff16141515156101c557600080fd5b8260000160008373ffffffffffffffffffffffffffffffffffffffff1673ffffffffffffffffffffffffffffffffffffffff16815260200190815260200160002060009054906101000a900460ff16905092915050565b6108228061022b6000396000f3006080604052600436106100a4576000357c0100000000000000000000000000000000000000000000000000000000900463ffffffff16806310154bad146100a95780631785f53c146100ec57806324d7806c1461012f578063291d95491461018a57806329575f6a146101cd5780633af32abf14610224578063704802751461027f5780638bad0c0a146102c2578063d6cd9473146102d9578063df7f453b146102f0575b600080fd5b3480156100b557600080fd5b506100ea600480360381019080803573ffffffffffffffffffffffffffffffffffffffff16906020019092919050505061034b565b005b3480156100f857600080fd5b5061012d600480360381019080803573ffffffffffffffffffffffffffffffffffffffff16906020019092919050505061036b565b005b34801561013b57600080fd5b50610170600480360381019080803573ffffffffffffffffffffffffffffffffffffffff16906020019092919050505061038b565b604051808215151515815260200191505060405180910390f35b34801561019657600080fd5b506101cb600480360381019080803573ffffffffffffffffffffffffffffffffffffffff1690602001909291905050506103a8565b005b3480156101d957600080fd5b506101e26103c8565b604051808273ffffffffffffffffffffffffffffffffffffffff1673ffffffffffffffffffffffffffffffffffffffff16815260200191505060405180910390f35b34801561023057600080fd5b50610265600480360381019080803573ffffffffffffffffffffffffffffffffffffffff1690602001909291905050506103ee565b604051808215151515815260200191505060405180910390f35b34801561028b57600080fd5b506102c0600480360381019080803573ffffffffffffffffffffffffffffffffffffffff16906020019092919050505061040b565b005b3480156102ce57600080fd5b506102d761042b565b005b3480156102e557600080fd5b506102ee610436565b005b3480156102fc57600080fd5b50610331600480360381019080803573ffffffffffffffffffffffffffffffffffffffff169060200190929190505050610441565b604051808215151515815260200191505060405180910390f35b6103543361038b565b151561035f57600080fd5b6103688161049b565b50565b61037433610441565b151561037f57600080fd5b610388816104f5565b50565b60006103a182600061054f90919063ffffffff16565b9050919050565b6103b13361038b565b15156103bc57600080fd5b6103c5816105e3565b50565b600160009054906101000a900473ffffffffffffffffffffffffffffffffffffffff1681565b600061040482600261054f90919063ffffffff16565b9050919050565b61041433610441565b151561041f57600080fd5b6104288161063d565b50565b610434336104f5565b565b61043f336105e3565b565b6000600160009054906101000a900473ffffffffffffffffffffffffffffffffffffffff1673ffffffffffffffffffffffffffffffffffffffff168273ffffffffffffffffffffffffffffffffffffffff16149050919050565b6104af81600261069790919063ffffffff16565b8073ffffffffffffffffffffffffffffffffffffffff167fee1504a83b6d4a361f4c1dc78ab59bfa30d6a3b6612c403e86bb01ef2984295f60405160405180910390a250565b61050981600061074790919063ffffffff16565b8073ffffffffffffffffffffffffffffffffffffffff167fa3b62bc36326052d97ea62d63c3d60308ed4c3ea8ac079dd8499f1e9c4f80c0f60405160405180910390a250565b60008073ffffffffffffffffffffffffffffffffffffffff168273ffffffffffffffffffffffffffffffffffffffff161415151561058c57600080fd5b8260000160008373ffffffffffffffffffffffffffffffffffffffff1673ffffffffffffffffffffffffffffffffffffffff16815260200190815260200160002060009054906101000a900460ff16905092915050565b6105f781600261074790919063ffffffff16565b8073ffffffffffffffffffffffffffffffffffffffff167f270d9b30cf5b0793bbfd54c9d5b94aeb49462b8148399000265144a8722da6b660405160405180910390a250565b61065181600061069790919063ffffffff16565b8073ffffffffffffffffffffffffffffffffffffffff167f44d6d25963f097ad14f29f06854a01f575648a1ef82f30e562ccd3889717e33960405160405180910390a250565b600073ffffffffffffffffffffffffffffffffffffffff168173ffffffffffffffffffffffffffffffffffffffff16141515156106d357600080fd5b6106dd828261054f565b1515156106e957600080fd5b60018260000160008373ffffffffffffffffffffffffffffffffffffffff1673ffffffffffffffffffffffffffffffffffffffff16815260200190815260200160002060006101000a81548160ff0219169083151502179055505050565b600073ffffffffffffffffffffffffffffffffffffffff168173ffffffffffffffffffffffffffffffffffffffff161415151561078357600080fd5b61078d828261054f565b151561079857600080fd5b60008260000160008373ffffffffffffffffffffffffffffffffffffffff1673ffffffffffffffffffffffffffffffffffffffff16815260200190815260200160002060006101000a81548160ff02191690831515021790555050505600a165627a7a72305820b42074f5ce8fca8817b48fc1d30bd24df4dcc70afe6dc0e50b34e3b038ee0b6d0029",
  "source": "pragma solidity 0.4.25;\n\nimport \"./../../node_modules/openzeppelin-solidity/contracts/access/Roles.sol\";\nimport \"./../ERC20Vendable/ERC20Vendable.sol\";\n\ncontract AdminRole {\n  using Roles for Roles.Role;\n\n  event AdminAdded(address indexed account);\n  event AdminRemoved(address indexed account);\n\n  Roles.Role private admins;\n  address public superAdmin;\n\n  constructor() public {\n    _addAdmin(msg.sender);\n    superAdmin = msg.sender;\n  }\n\n  modifier onlyAdmin() {\n    require(isAdmin(msg.sender));\n    _;\n  }\n\n  modifier onlySuperAdmin() {\n    require(isSuperAdmin(msg.sender));\n    _;\n  }\n\n  function isAdmin(address account) public view returns (bool) {\n    return admins.has(account);\n  }\n\n  function isSuperAdmin(address account) public view returns (bool) {\n    return account == superAdmin;\n  }\n\n  function addAdmin(address account) public onlySuperAdmin {\n    _addAdmin(account);\n  }\n\n  function removeAdmin(address account) public onlySuperAdmin {\n    _removeAdmin(account);\n  }\n\n  function renounceAdmin() public {\n    _removeAdmin(msg.sender);\n  }\n\n  function _addAdmin(address account) internal {\n    admins.add(account);\n    emit AdminAdded(account);\n  }\n\n  function _removeAdmin(address account) internal {\n    admins.remove(account);\n    emit AdminRemoved(account);\n  }\n}\n\ncontract WhitelistedRole is AdminRole {\n    using Roles for Roles.Role;\n\n    event WhitelistedAdded(address indexed account);\n    event WhitelistedRemoved(address indexed account);\n\n    Roles.Role private _whitelisteds;\n\n    modifier onlyWhitelisted() {\n        require(isWhitelisted(msg.sender));\n        _;\n    }\n\n    function isWhitelisted(address account) public view returns (bool) {\n        return _whitelisteds.has(account);\n    }\n\n    function addWhitelisted(address account) public onlyAdmin {\n        _addWhitelisted(account);\n    }\n\n    function removeWhitelisted(address account) public onlyAdmin {\n        _removeWhitelisted(account);\n    }\n\n    function renounceWhitelisted() public {\n        _removeWhitelisted(msg.sender);\n    }\n\n    function _addWhitelisted(address account) internal {\n        _whitelisteds.add(account);\n        emit WhitelistedAdded(account);\n    }\n\n    function _removeWhitelisted(address account) internal {\n        _whitelisteds.remove(account);\n        emit WhitelistedRemoved(account);\n    }\n}\n\ncontract VendingMachine is AdminRole, WhitelistedRole {\n  using SafeMath for uint256;\n\n  ERC20Vendable public tokenContract;\n  mapping (address => uint256) public allowance;\n\n  event Deposit(address indexed depositor, uint amount);\n  event Withdraw(address indexed withdrawer, uint amount);\n\n  constructor(address _tokenContract) public {\n    tokenContract = ERC20Vendable(_tokenContract);\n  }\n\n  //Fallback. Just send currency here to deposit\n  function () external payable {\n    deposit();\n  }\n\n  /**\n  * @dev Deposit currency in order to buy tokens from the ERC20Contract\n  * Will buy tokens at a 1-to-1 ratio. User will also be given an allowance to withdraw the same amount.\n  */\n  function deposit() public payable {\n    _addAllowance(msg.sender, msg.value);\n\n    tokenContract.mint(msg.sender, msg.value);\n    emit Deposit(msg.sender, msg.value);\n  }\n\n  /**\n  * @dev Admin hook to increment an account's withdraw allowance.\n  * Could be useful if they don't want to give the user unlimited withdraw by whitelisting them\n  * @param account The address to receive the increased allowance.\n  * @param amount The amount to increase the allowance\n  */\n  function addAllowance(address account, uint256 amount) public onlyAdmin {\n    _addAllowance(account, amount);\n  }\n\n  function _addAllowance(address account, uint256 amount) private {\n    allowance[account] = allowance[account].add(amount);\n  }\n\n  function withdraw(uint256 amount) public {\n    if(isWhitelisted(msg.sender)) {\n      _withdraw(amount);\n    } else {\n      require(amount <= allowance[msg.sender]);\n      allowance[msg.sender] = allowance[msg.sender].sub(amount);\n      _withdraw(amount);\n    }\n  }\n\n  function _withdraw(uint256 amount) private {\n    tokenContract.burn(msg.sender, amount);\n    msg.sender.transfer(amount);\n    emit Withdraw(msg.sender, amount);\n  }\n\n  function adminMint(address to, uint256 amount) public onlyAdmin {\n    tokenContract.mint(to, amount);\n  }\n\n  function sweep(uint256 amount) public onlySuperAdmin {\n      msg.sender.transfer(amount);\n  }\n\n  //*****************  Product/Vendor related code *******************//\n\n  mapping (address => Vendor) public vendors;\n  mapping (address => mapping (uint256 => Product)) public products;\n\n  event UpdateVendor(address indexed vendor, bytes32 name, bool isActive, bool isAllowed, address sender);\n  event AddProduct(address indexed vendor, uint256 id, uint256 cost, bytes32 name, bool isAvailable);\n\n  struct Vendor {\n    bytes32 name;\n    bool isActive; //let's vendor indicate if they are open at the time\n    bool isAllowed; //let's admin turn them off,\n    bool exists;\n  }\n\n  struct Product {\n    uint256 id;\n    uint256 cost;\n    bytes32 name;\n    bool exists;\n    bool isAvailable;\n  }\n\n  function addProduct(uint256 id, bytes32 name, uint256 cost, bool isAvailable) public {\n    require(vendors[msg.sender].isAllowed, \"VendingMachine::addProduct - vendor is not allowed by admin\");\n    products[msg.sender][id] = Product({\n      id: id,\n      cost: cost,\n      name: name,\n      exists: true,\n      isAvailable: isAvailable\n    });\n\n    emit AddProduct(msg.sender, id, cost, name, isAvailable);\n  }\n\n  function addVendor(address _vendorAddress, bytes32 _name) public onlyAdmin {\n    require(!vendors[_vendorAddress].exists, \"VendingMachine::addVendor This address already is a vendor.\");\n\n    vendors[_vendorAddress] = Vendor({\n      name: _name,\n      isActive: false,\n      isAllowed: true,\n      exists: true\n    });\n\n    _emitUpdateVendor(_vendorAddress);\n  }\n\n  function activateVendor(bool _isActive) public {\n    //Existing vendor check happens in _updateVendor. No need to do it here\n    _updateVendor(\n      msg.sender,\n      vendors[msg.sender].name,\n      _isActive,\n      vendors[msg.sender].isAllowed\n    );\n  }\n\n  function updateVendor(address _vendorAddress, bytes32 _name, bool _isActive, bool _isAllowed) public onlyAdmin {\n    _updateVendor(_vendorAddress, _name, _isActive, _isAllowed);\n  }\n\n  function _updateVendor(address _vendorAddress, bytes32 _name, bool _isActive, bool _isAllowed) private {\n    require(vendors[_vendorAddress].exists, \"VendingMachine::_updateVendor Cannot update a non-existent vendor\");\n\n    vendors[_vendorAddress].name = _name;\n    vendors[_vendorAddress].isActive = _isActive;\n    vendors[_vendorAddress].isAllowed = _isAllowed;\n\n    _emitUpdateVendor(_vendorAddress);\n  }\n\n  function _emitUpdateVendor(address _vendorAddress) private {\n    emit UpdateVendor(\n      _vendorAddress,\n      vendors[_vendorAddress].name,\n      vendors[_vendorAddress].isActive,\n      vendors[_vendorAddress].isAllowed,\n      msg.sender\n    );\n  }\n}\n",
  "sourcePath": "/Users/edu/Documents/Gitcoin/noti-burn/contracts/VendingMachine/VendingMachine.sol",
  "compiler": {
    "name": "solc",
    "version": "0.4.25+commit.59dbf8f1.Emscripten.clang"
  },
  "schemaVersion": "3.0.1",
  "updatedAt": "2019-02-06T18:25:41.202Z",
  "devdoc": {
    "methods": {}
  },
  "userdoc": {
    "methods": {}
  }
}